:020000040800F2
:10000000580C002089010008FD120008A911000801
:10001000F912000853080008372F000800000000FC
:100020000000000000000000000000008122000825
:10003000D90B000800000000A11B0008652900087A
:10004000A3010008A3010008A3010008A301000800
:10005000A3010008A3010008A3010008A3010008F0
:10006000A3010008A3010008A3010008A3010008E0
:10007000A3010008A3010008A3010008A3010008D0
:10008000A3010008A3010008A3010008A3010008C0
:10009000A3010008A3010008A3010008A3010008B0
:1000A000A3010008A3010008A3010008A3010008A0
:1000B000A3010008A3010008A3010008A301000890
:1000C000A3010008A3010008A3010008A301000880
:1000D000A30100082D2D0008A3010008552D0008DC
:1000E000A3010008A3010008A301000800F002F822
:1000F00000F03AF80AA090E8000C82448344AAF188
:100100000107DA4501D100F02FF8AFF2090EBAE885
:100110000F0013F0010F18BFFB1A43F0010318473B
:10012000405C0000605C0000103A24BF78C878C1D1
:10013000FAD8520724BF30C830C144BF04680C60ED
:10014000704700000023002400250026103A28BF35
:1001500078C1FBD8520728BF30C148BF0B60704739
:100160001FB51FBD10B510BD00F0ACF81146FFF76C
:10017000F7FF02F00BFF00F0CAF803B4FFF7F2FF3D
:1001800003BC00F0CDF8000009488047094800474B
:10019000FEE7FEE7FEE7FEE7FEE7FEE7FEE7FEE737
:1001A000FEE7FEE704480549054A064B7047000094
:1001B00075290008ED00000858060020580C0020A2
:1001C0005808002058080020032A40F2308010F020
:1001D000030C00F0158011F8013BBCF1020F6244E2
:1001E00098BF11F801CB00F8013B38BF11F8013B73
:1001F000A2F1040298BF00F801CB38BF00F8013B20
:1002000011F0030300F02880083AC0F0088051F88C
:10021000043B083A51F804CBA0E80810F5E7121D9A
:100220005CBF51F8043B40F8043BAFF30080D207B9
:1002300024BF11F8013B11F801CB48BF11F8012B85
:1002400024BF00F8013B00F801CB48BF00F8012BA8
:10025000704770477047704710B5203AC0F00B8068
:10026000B1E81850203AA0E81850B1E81850A0E8BA
:100270001850BFF4F5AF5FEA027C24BFB1E8185014
:10028000A0E8185044BF18C918C0BDE810405FEA84
:10029000827C24BF51F8043B40F8043B08BF704700
:1002A000D20728BF31F8023B48BF11F8012B28BF05
:1002B00020F8023B48BF00F8012B70470048704708
:1002C000F40500207546FFF7F9FFAE4605006946C4
:1002D000534620F00700854618B020B5FFF762FFAF
:1002E000BDE820404FF000064FF000074FF0000837
:1002F0004FF0000B21F00701AC46ACE8C009ACE8B8
:10030000C009ACE8C009ACE8C0098D46704710B51B
:100310000446AFF300802046BDE81040FFF72DBF34
:1003200001491820ABBEFEE726000200704721B14C
:10033000826842F00102826003E0826822F00102DA
:100340008260704721B1826842F48072826003E06B
:10035000826822F480728260704721B1826842F420
:100360008012826003E0826822F48012826070470B
:10037000014600208A6802F004020AB1012000E070
:1003800000207047014600208A6802F008020AB186
:10039000012000E00020704730B502460020002315
:1003A00050680F4C20400D790C6844EA0524204326
:1003B000506090680B4C2040D1E902542C434D7999
:1003C00044EA450420439060D06A20F470000C7C1D
:1003D000641EE4B2234340EA0350D06230BD000003
:1003E000FFFEF0FFFDF7F1FFF0B504460D460020DB
:1003F0000021092D11DDE068A5F10A0606EB46078C
:10040000072606FA07F18843A5F10A0606EB460619
:1004100003FA06F10843E0600CE0206905EB4507AC
:10042000072606FA07F1884305EB450603FA06F1AD
:1004300008432061072A0FDA606B561E06EB860719
:100440001F2606FA07F18843561E06EB860605FAB4
:1004500006F10843606322E00D2A0FDA206BD61FF5
:1004600006EB86071F2606FA07F18843D61F06EB20
:10047000860605FA06F10843206310E0E06AA2F15F
:100480000D0606EB86071F2606FA07F18843A2F140
:100490000D0606EB860605FA06F10843E062F0BD9C
:1004A000816841F0080181607047816841F0040172
:1004B000816070470022002105E0054830F81100F6
:1004C0000244481CC1B22029F7DBC2F34F10704729
:1004D0007805002000B591B001214FF4017001F0C2
:1004E0002DFE0121084601F009FE4FF4004001F005
:1004F000F9FD00208DF843001020ADF840000320E6
:100500008DF8420010A9324800F04AFD314800F051
:100510009FFA31480090314801900020029020203D
:1005200003900020049080200590400006908000F9
:10053000079020200890C001099000200A90694689
:10054000244800F02BFB0121224800F075FA00201E
:100550000B908DF830008DF831004FF400200D9095
:1005600000200E9001208DF83C000BA91A484C3851
:10057000FFF712FF07230122042117484C38FFF729
:1005800033FF012114484C38FFF7DCFE01211248EB
:100590004C38FFF7CCFE10484C38FFF781FF00BF06
:1005A0000D484C38FFF7EEFE0028F9D10A484C38C8
:1005B000FFF77BFF00BF08484C38FFF7D9FE002843
:1005C000F9D1012104484C38FFF7C7FE11B000BD36
:1005D00000080140080002404C240140780500203A
:1005E00010B5124800881249088010484088114907
:1005F00008800E480079104908800C4840790F495E
:1006000008800A4880790E49087000240BE00748EA
:1006100013300357401F025D401F015D204601F06B
:10062000B1FF601CC4B2052CF1DB10BDD805002061
:100630009000002092000020A4000020A6000020CE
:10064000B300002000B587B0012144F20C0001F096
:1006500075FD0121880401F061FD18208DF81B0053
:1006600003208DF81A004FF40070ADF8180006A9A9
:10067000334800F095FC4FF48060ADF8180006A9EF
:10068000304800F08DFC48208DF81B004FF480604E
:10069000ADF8180006A92A4800F082FC4FF400606B
:1006A000ADF8180006A9274800F07AFC4FF4165060
:1006B00002900020ADF80C00ADF80E00ADF810006F
:1006C000ADF814000C20ADF8120002A91E4802F08B
:1006D000BDFB4FF4E130029002A91C4802F0B6FBCA
:1006E000012240F22551184802F08BFB012240F212
:1006F0002551164802F085FB4FF4A06000F038FE4B
:1007000001208DF807008DF805008DF806002520E2
:100710008DF8040001A800F0F3FD02208DF805001B
:1007200027208DF8040001A800F0EAFD0121064809
:1007300002F024FB0121054802F020FB07B000BDB8
:1007400000080140000C0140003801400048004012
:100750007FB501F0C1FB0446184800788DF8000011
:1007600020788DF8010060788DF80200A0788DF86F
:100770000300134800788DF8040020798DF80500F7
:10078000E0788DF80600002507E0284601F0D8FE45
:10079000E91D0DF80100681CC5B2052DF5DB0948FF
:1007A00000788DF80C0002F0EBFB8DF80D000E22A6
:1007B0006946702001F072FE7FBD0000B00000208D
:1007C0008E0000202800002010B50021034801F011
:1007D0000DF90121024801F009F910BDBC0000200B
:1007E00000010020024692F8400092F84130984201
:1007F00001D10020704792F84100105C087092F817
:100800004130581CC31700EB93639B11A0EB83137B
:1008100082F841300120EDE710B50A4690F84040DB
:10082000611CCC1701EB9464A411A1EB8414E3B216
:1008300090F84110994205D1B0F84210491CA0F837
:10084000421010BD90F84010425480F8403000BF74
:10085000F7E700BFFEE700000146024801600068BC
:1008600070470000003002400148006870470000F7
:10087000003002400120014988607047003002408A
:100880002DE9F04105462E460121402001F036FCBD
:10089000FFF7F0FF002405E056F82400FFF7DCFF27
:1008A000601CC4B2072CF7D3FFF7DEFF0746002118
:1008B000402001F023FC3846BDE8F0810048704735
:1008C000D805002070B5254C2549206888421ED1E6
:1008D000201DFFF7D5FF216A884218D1A088502833
:1008E00015DBA088B0F5C87F11DCE08802280EDB9C
:1008F000E08814280BDCE07A642808DC207B64287C
:1009000005DC1C22211D1748FFF75EFC23E0C820F0
:100910001449088006204880012008710020487191
:10092000012088713C20C8715020087200250BE01E
:100930000A210C4809304155AA21401D415500218A
:10094000401D4155681CC5B2052DF1DB002105484D
:10095000817641760176FFF743FE70BD00FC00080A
:1009600031544550D8050020F0B589B06F4601F0EC
:10097000B3FA064628480088284908802848008895
:10098000488028480078087127480078487127482F
:10099000007888713078C8717078087200240BE094
:1009A0001E4813300319401F0219401F0119204629
:1009B00001F0B0FD601CC4B2052CF1DB1C480090B6
:1009C0001C22164901A8FFF7FFFB01A8FFF758FFFB
:1009D000089000F0DDF9174800F070F90546042D85
:1009E00011D100240CE037F81410124A02EB440035
:1009F00000F0AEF90546042D00D003E0601CC4B23F
:100A0000122CF0D300BF00F099F9042D02D101207F
:100A100009B0F0BD0020FBE790000020D8050020C1
:100A200092000020A4000020A6000020B3000020B7
:100A30003154455000FC000821B1026842F0010227
:100A4000026004E002684FF6FE731A4002607047CD
:100A500001684FF6FE7211400160002101604160A3
:100A60008160C1604B49884208D14A4908394968C8
:100A700041F00F01474A083A51608AE04549143174
:100A8000884208D143490839496841F0F001414A98
:100A9000083A51607DE03F492831884208D13D49FC
:100AA0000839496841F470613A4A083A516070E087
:100AB00038493C31884208D136490839496841F4FF
:100AC0007041344A083A516063E0324950318842FB
:100AD00008D130490839496841F470212D4A083A53
:100AE000516056E02B496431884208D129490839C0
:100AF000496841F47001274A083A516049E02549A4
:100B00007831884208D123490839496841F0706139
:100B1000204A083A51603CE01F49884206D1011F33
:100B2000096841F00F01021F116032E01A491431C7
:100B3000884208D11849091F096841F0F001164A96
:100B4000121F116025E014492831884208D112494A
:100B5000091F096841F470610F4A121F116018E003
:100B60000D493C31884208D10B49091F096841F4FD
:100B70007041094A121F11600BE007495031884249
:100B800007D10549091F096841F47021024A121F63
:100B900011607047080002400804024010B50022AE
:100BA000026847F6F0739A430C6A8B6823430C691A
:100BB00023434C6923438C692343CC6923434C6A08
:100BC00023438C6A23431A430260CB6843600B685B
:100BD00083604B68C36010BD70470000F8B50546E0
:100BE0000C4616461F4601200090292D07DB502D8C
:100BF00005DC3946284601F085F8009051E0602D6B
:100C000002D1FFF7A5FDF8BD612D03D1FFF7ACFEC2
:100C1000009046E0622D04D101F00EF80120009012
:100C20003FE0632D17D1022E15DB227802EB820202
:100C30005000617850280BDBB0F5C87F08DC022932
:100C400006DB142904DC1B4A10801B4A118001E0DA
:100C50000022009225E0642D21D1042E1FDB207894
:100C6000052819DA6078A178884215DAA078B428C6
:100C700012DCE07840B210F11E0F0DDBE07840B2DC
:100C80001E2809DC94F803C04FFA8CF3A27861782F
:100C9000207801F077FC04E00020009001E00020C3
:100CA000009027B1012269467F2001F0F7FB00BFC9
:100CB000A9E70000900000209200002030B5044613
:100CC00004254FF4302000F06FF80546042D17D1AD
:100CD0000C48006940F002000A4908610846446176
:100CE000006940F0400008614FF4302000F05CF8EB
:100CF00005460448006941F6FD7108400149086154
:100D0000284630BD0020024004200B49C96801F08C
:100D1000010109B101200EE00749C96801F0040191
:100D200009B1022007E00449C96801F0100109B1C6
:100D3000032000E0042070470020024003480069BF
:100D400040F0800001490861704700000020024027
:100D500070B504460D460426F00200F025F806465C
:100D6000042E11D10948006940F0010007490861CB
:100D70002580F00200F018F806460448006941F6A4
:100D8000FE71084001490861304670BD00200240F4
:100D9000024803494860034848607047230167459B
:100DA00000200240AB89EFCD00B502460423FFF7D7
:100DB000ABFF034603E0FFF7A7FF0346521E012BDC
:100DC00001D1002AF7D102B90523184600BD000061
:100DD00008B5534800885349098888420CD15248C5
:100DE000008852490988884206D151480078514903
:100DF0000978884200D108BD4A48008848490880DF
:100E00004A480088484908804A480078484908709C
:100E100044480088072852D2DFE800F0040F1A2562
:100E2000303B460000F0AEFA4348402380220021C8
:100E30000090084600F0FEFB41E000F0A3FA3F48B6
:100E40004023802200210090084600F0F3FB36E0AA
:100E500000F098FA3A48402380220021009008468A
:100E600000F0E8FB2BE000F08DFA364840238022AA
:100E700000210090084600F0DDFB20E000F082FA3F
:100E800031484023802200210090084600F0D2FB28
:100E900015E000F077FA2D484023802200210090D1
:100EA000084600F0C7FB0AE000F06CFA284840232F
:100EB000802200210090084600F0BCFB00BF00BF6C
:100EC0001C48007838B3062322A20021084600F00F
:100ED00055FC164800886E2806DB06231FA2002159
:100EE000242000F04BFC16E010480088642809DB41
:100EF0000620032300900D4802880021242000F0E2
:100F000017FC08E006200223009008480288002110
:100F1000242000F00DFC00F049FC00BF6BE700004E
:100F2000800000209400002082000020B0000020FB
:100F300084000020B30000206051000860550008C4
:100F400060490008604D00086059000860450008CD
:100F500060410008506F7765723A00004368617223
:100F600067696E670000000009480078042806DB06
:100F700007480078072802DC0648008870470648C2
:100F800000680649097800EBC100C088F6E7000058
:100F90007C000020900000207400002079000020D8
:100FA0002DE9F04102460025002600200023002400
:100FB000002791F803C00CF00F0591F803C00CF066
:100FC000100CBCF1000F03D091F802C04CEA0505EB
:100FD00091F800C0BCF1000F31D0146800202BE064
:100FE0004FF0010C0CFA00F3B1F800C00CEA030654
:100FF0009E4220D183004FF00F0C0CFA03F7BC4344
:1010000005FA03FC4CEA040491F803C0BCF1280F74
:1010100006D14FF0010C0CFA00FCC2F814C00AE033
:1010200091F803C0BCF1480F05D14FF0010C0CFA48
:1010300000FCC2F810C0401C0828D1D31460B1F8DD
:1010400000C0BCF1FF0F34DD546800202EE000F139
:10105000080C4FF0010808FA0CF3B1F800C00CEAD4
:1010600003069E4221D183004FF00F0C0CFA03F7C8
:10107000BC4305FA03FC4CEA040491F803C0BCF13C
:10108000280F05D100F1080C08FA0CF8C2F81480FA
:1010900091F803C0BCF1480F07D100F1080C4FF0E4
:1010A000010808FA0CF8C2F81080401C0828CED3BA
:1010B0005460BDE8F0810AB1016100E04161704710
:1010C0002DE9F047FFF7F6F9814602F023F9804653
:1010D000114902F067F90746104902F021F8064667
:1010E0000F4902F05FF905460E4902F059FA04462D
:1010F0000021204602F022F900D200240A492046AD
:1011000002F01CFA00D2084C08480460204602F0A5
:10111000C9F880B2BDE8F0873333534100F07F4512
:101120000000C8420000964300C07944A800002097
:1011300010B5FFF7CFF910BD70B50025FFF7C0FF60
:1011400015490A780978491C134B1970134921F87D
:10115000120018460078082802DB002019460870A3
:101160000F480078082804DA0D480078401C0C4924
:101170000870002405E0094830F814000544601C9C
:10118000C4B2074800788442F5DB05480078B5FB17
:10119000F0F00449088070BD85000020B8050020EB
:1011A00086000020B000002000BFFEE74CF6CC40D7
:1011B0000149086070470000003000404AF6AA204C
:1011C0000149086070470000003000400149486054
:1011D00070470000003000400149886070470000FF
:1011E00000300040014908607047000000300040B6
:1011F0000146042905DB0F2903DC092901D0012060
:1012000070470020FCE7000010B536480088012830
:101210000BD13548008840B944F6206000F0A8FBA7
:1012200044F6206000F0AEFB5AE02E48008801280A
:101230004DD12D480088012849D12C48008801282B
:1012400016D12B4800886430294908800846008858
:1012500000F08EFB2648008800F094FB24480088AC
:1012600044F6206188423BD102202049088037E0C3
:101270001E480088022813D11D48008864381C4984
:1012800008800846008800F073FB1948008800F0C9
:1012900079FB1748008818BB0320144908801FE019
:1012A0001248008803281BD11248008800F57A7084
:1012B000104908800846008844F6206188420FD112
:1012C00001200A49088000200A49088008E00548F2
:1012D000008828B9002000F04BFB002000F052FBF2
:1012E00010BD0000A4000020A6000020A0000020E7
:1012F0009E000020A200002000BFFEE77047000013
:1013000070B5002100230F22C47804B3154C246863
:1013100004F4E064C4F5E064210AC1F10403CA40A6
:10132000447804FA03F184781440214309010E4CF7
:101330000678A155047804F01F050124AC40057817
:101340006D11AD0005F1E025C5F8004109E0047814
:1013500004F01F050124AC40044D0678761145F8D1
:10136000264070BD0CED00E000E400E080E100E00C
:1013700002490143024A1160704700000000FA056B
:101380000CED00E000200CE0002106E00022064BFE
:1013900003EBC0135A544A1CD1B28029F6DB421C1D
:1013A000D0B20828F0DB7047780100202DE9F04327
:1013B00004460D4616461F46284638E0224631E0D0
:1013C000002A2DDB7F2A2BDC002829DB3F2827DCA5
:1013D0004FEAE07C00EB5C7C4FEAEC0CDFF85880D5
:1013E00008EBCC1C1CF802C003464FEAE07800EB87
:1013F00058784FEAE808A0EBC8094FF0010808FA4E
:1014000009F82CEA080C01464FEAE07800EB58781E
:101410004FEAE808DFF8209009EBC81808F802C086
:10142000511C0AB2A1199142CADC411C08B2E91947
:101430008142C3DCBDE8F0837801002038B5002488
:1014400006E0002500E06D1CB5F57A7FFBD3641C37
:10145000B4F57A7FF5D30121082000F06FFE142047
:101460008DF8030003208DF802004FF48070ADF872
:10147000000069460848FFF793FD4FF40070ADF88F
:10148000000069460448FFF78BFD012000F0A2F937
:10149000012000F0ABF938BD000C014070B50546E5
:1014A000002411E080212141294009B1012100E0FF
:1014B0000021084600F09AF9012000F08BF9002085
:1014C00000F088F9601CC4B2082CEBDB012000F0AE
:1014D00081F9002000F07EF970BD10B5012000F008
:1014E00085F9012000F076F9002000F07FF9002056
:1014F00000F070F910BD10B5002000F077F9012060
:1015000000F068F9012000F071F910BD10B5FFF787
:1015100095FFAE2000F076F9D52000F073F9802019
:1015200000F070F9A82000F06DF93F2000F06AF992
:10153000D32000F067F9002000F064F9402000F0AB
:1015400061F9A12000F05EF9C82000F05BF9DA2013
:1015500000F058F9122000F055F9812000F052F9FE
:10156000CF2000F04FF9D92000F04CF9F12000F025
:1015700049F9DB2000F046F9302000F043F9A420BF
:1015800000F040F9A62000F03DF98D2000F03AF976
:10159000142000F037F9AF2000F034F9FFF7F2FE25
:1015A00000F004F910BD10B50246012000E05043E0
:1015B0000B1EA1F10101FAD110BD70B505460C4614
:1015C000A01CC4B245F0B00000F01CF9102141EAA3
:1015D000141000F017F904F00F0000F013F970BDBB
:1015E000F8B506460F4614461D46082D0CD1A4F149
:1015F00020000E4901EB001010230822394600900C
:10160000304600F017F80FE0062D0DD1A4F12000B0
:1016100000EB4000064901EB400008230622394652
:101620000090304600F006F8F8BD00001A380008B7
:101630000A3E00082DE9FF4F80460E469146DDF830
:1016400034B0002500244A4631464046039BFFF74C
:10165000ADFE00BF5EE0002558E008EB0500002865
:1016600052DB08EB05007F284EDC3046F11706EB15
:101670005171C9100FB2F11706EB5171C910A6EBE9
:10168000C10A002E05DA781E07B20AF108000FFA27
:1016900080FA3819002817DB3819072814DC3819A4
:1016A000224901EBC01008EB0501405C04FB095125
:1016B0001BF8011001FA0AF1084339191B4A02EB21
:1016C000C11108EB050288543819401C00281BDBA7
:1016D0003819401C072817DC3819401C134901EB46
:1016E000C01008EB0501405C04FB09511BF8011018
:1016F000CAF10802114108433919491C0B4A02EB8F
:10170000C11108EB05028854681CC5B24D45A4DB25
:10171000601CC4B20399481EC11700EB517101222D
:1017200002EBE101A14296DCBDE8FF8F78010020C9
:101730002DE9F0470646894617461D46DDF820800C
:10174000002417E0281B411E0A20FFF72CFFB7FBDF
:10175000F0F00A21B0FBF1F201FB120000F1300AB7
:1017600004FB086108B2434652464946FFF738FF7A
:10177000601CC4B2AC42E5DBBDE8F0872DE9F04166
:101780000646884615461F46002409E02A5D04FBEC
:10179000076108B23B464146FFF722FF601CC4B216
:1017A000285D0028F2D1BDE8F081000010B50024CA
:1017B0000BE000212046FFF700FF054901EBC410B4
:1017C000802100F02FF8601CC4B2082CF1DB10BDA2
:1017D0007801002010B5044622464FF4807102487B
:1017E000FFF769FC10BD0000000C014010B5044675
:1017F00022464FF400710248FFF75DFC10BD000067
:10180000000C014010B50446FFF767FE7820FFF793
:1018100045FE0020FFF742FE2046FFF73FFEFFF7A0
:101820006AFE10BD70B505460E46FFF756FE7820DD
:10183000FFF734FE4020FFF731FE002404E0285D6E
:10184000FFF72CFE601CC4B2B442F8DBFFF753FE76
:1018500070BD000000B589B00121084600F05EFCB3
:101860000121022000F05AFC0121042000F066FC56
:101870000121082000F062FC18208DF823004F2081
:10188000ADF8200003208DF8220008A93548FFF7A5
:1018900087FB18208DF823000320ADF820008DF879
:1018A000220008A93048FFF77BFB4FF0804001F091
:1018B0009DF82E4801F09AF80020ADF81A00ADF816
:1018C000160044F61F60ADF818004720ADF814006C
:1018D00000208DF81C0005A94FF0804001F0D4F9DC
:1018E00005A9224801F0D0F92021204801F0BAF9D9
:1018F00001A801F0ADF96020ADF804000020ADF8BA
:101900000C000120ADF806000020ADF80A0001A986
:101910004FF0804001F070F801A94FF0804001F0D5
:10192000B7F801A94FF0804001F004F901A94FF088
:10193000804001F04FF901A90C4801F05DF801A9C0
:101940000A4801F0F7F801A9084801F043F901211C
:10195000880701F03FF80121044801F03BF809B085
:1019600000BD000000080140000C014000040040E0
:1019700010B504462146024801F081F910BD00006F
:101980000004004010B504462146024801F079F9F0
:1019900010BD00000004004010B5044621464FF081
:1019A000804001F068F910BD10B5044621464FF0A3
:1019B000804001F062F910BD10B5044621464FF099
:1019C000804001F05CF910BD10B5044621464FF08F
:1019D000804001F056F910BD10B50446214602487A
:1019E00001F049F910BD000000040040F8B50646BA
:1019F0000D460DB1012000E0002004466048005D66
:101A000078B100F07DFC5F4951F82410401A642839
:101A100007D900205A4908555B480088401C5A499C
:101A20000880A4E000F06CFC564941F824005448BA
:101A3000005D062817D2DFE800F003172F3E627F13
:101A40009DF80000AA2807D101204D4908559DF8AE
:101A500000004E49085506E02B46002211469DF82D
:101A60000000FFF7BBF881E09DF8000055280AD17F
:101A70000220434908554548005D9DF80010084480
:101A80004249085507E000203D4908553E48008876
:101A9000401C3D49088069E09DF800003C4908551C
:101AA0003A48005D9DF80010084438490855032065
:101AB000334908555AE09DF8000036490855334827
:101AC000005D9DF800100844304908550020324957
:101AD00008559DF80000102808DD00202849085509
:101AE00029480088401C2849088007E09DF800002C
:101AF00008B1042000E005202149085536E09DF892
:101B000000102548025D005D401C234B18552348FA
:101B100000EB041081541D48005D9DF8001008443E
:101B20001A4908551846005D1A49095D884202DBCA
:101B300005201349085519E01448005D9DF8001070
:101B400088420AD1134B1A5D144B03EB0411104B5E
:101B5000185D2B46FFF742F804E00B480088401C54
:101B60000949088000200649085500BF00BF6946A2
:101B70003046FEF737FE00287FF454AFF8BD000072
:101B80002A0000203400002028000020320000201D
:101B90002C0000202E0000203000002044010020F6
:101BA0007047000010B5FF20034908700021022093
:101BB00000F012F810BD00007C00002005480078FD
:101BC000FF2805D003480078022801D00120704783
:101BD0000020FCE77C00002070B504460D460F2C69
:101BE00001DC092C00D170BD0C4804800C48058034
:101BF0000C4804700C48057000200C4908700C4912
:101C00000880204600F082FBFFF7AEF90646314619
:101C10000848006800F006FD00BFE4E78E000020E1
:101C20009A0000207C0000207E0000207900002027
:101C30007A0000207400002010B500210220FFF778
:101C4000CBFF10BD70B500F021FD27480078FF28BC
:101C500000D170BDFFF788F904462448008814308D
:101C60002249088008460088A04200DAF1E70020F7
:101C70001E4908801E480078401C1D49087008460F
:101C800000781C49097888421FDB1B48007818B986
:101C90001A48007801280BDD1748007820B917484A
:101CA0000078401E154908700020114908700CE0AA
:101CB0000D480078032803DCFF200B490870C8E7B3
:101CC00000210220FFF788FFC3E7FFF74DF9054623
:101CD0000B490968064A127801EBC200294600F058
:101CE000A1FC00BFB5E700007C0000207A000020C6
:101CF00079000020780000207E0000207D00002078
:101D00007400002070B505460E46FF2400F0F8FA76
:101D1000694988600020C870084600785F2803DAA7
:101D200008460078401D0870A5F12900282872D2C5
:101D3000DFE800F0149B9B9B9B9B9B191E23282D87
:101D400032373C41509B9B9B9B9B9B5F676C7277A0
:101D50007B8084898E9B9B9B9B9B9B930024002074
:101D60005649088083E001240120544908807EE020
:101D7000022405205149088079E0032401204F49BD
:101D8000088074E0042402204C4908806FE0052498
:101D900002204A4908806AE0062402204749088058
:101DA00065E0072402204549088060E008240420FB
:101DB000424908805BE042480088642805DD4048CD
:101DC000008814383E49088002E0C8203C49088059
:101DD000012070BD3B480088032805DD3948008894
:101DE000401E3849088002E0092036490880012059
:101DF000EFE73548007880F0010033490870012092
:101E0000E7E70A2402202D49088030E00B24022055
:101E10002A4908802BE028E00D2406202749088065
:101E200025E0012029490880D3E7002027490880C0
:101E30000120CEE7012026490880CAE70020244976
:101E400008800120C5E70E2406201C4908800EE00A
:101E50000F2406201949088009E01E48007880F008
:101E600001001C4908700120B3E70020B1E700BF62
:101E700011480079012803D00F4840780F280DDA67
:101E80000A2C03D00B2C01D0082C07D101200B49C0
:101E900008800021FFF7A0FE00209AE72EB1042C55
:101EA00003DB072C01DC012000E000200146204676
:101EB000FFF792FE01208CE7C80500209400002067
:101EC000900000209200002096000020A400002036
:101ED000A6000020B300002000487047C80500207D
:101EE00010B5FEF7EBFC0446E07908490870207A4B
:101EF0004870322088700020C870087100F000FA25
:101F0000024988600020C86010BD0000C80500209C
:101F100010B52248007830B12148C07818B920485F
:101F20000079012800D110BD1D488078462801DBCA
:101F3000142000E00A2004461A4890F90000002806
:101F400011DD194800782044912806DB91201649BC
:101F50000870FF201349087017E0134800782044E8
:101F60001149087011E004F123000F4909788842F3
:101F700006DB23200C49087001200A49087004E0A0
:101F800009480078001B0849087064220648017857
:101F9000042000F013FB00BFC5E7000096000020FE
:101FA000C8050020B9000020B800002010B5454841
:101FB000C068401C4349C86000F0A2F941498968E3
:101FC000441A41480088002814DD3F4800880F2843
:101FD00010DC01203B49087100203C4908800120A9
:101FE0003B490880FFF7EAFD78B100210846FFF77A
:101FF000F3FD0AE0334840780F2803DA0220314924
:10200000087102E000202F49087132490878FFF773
:10201000EFF8A8B1FFF7D2FD90B12A484078002828
:1020200004DD28484078401E2649487025484078FD
:10203000462801DD5A2000E03C202249887010E04B
:1020400020484078642804DA1E484078401C1D4926
:1020500048701C48C07808B10A2000E023201949C4
:1020600088701D4884420FD31648C07860B901209B
:102070001449C870002016490880012017490880BB
:1020800000210846FFF7A8FD47F23050844208D9E6
:102090000C4800780A2804DD0A480078401E0949E7
:1020A00008700848007850280BDB0648C07840B913
:1020B000FFF784FD28B9012009490870022004496E
:1020C000088010BDC8050020B0000020A40000203A
:1020D000940000208E000020C0D40100A600002043
:1020E0009600002001460020034A506820F440403A
:1020F00008435060704700000010024029B1064AB2
:1021000052690243044B5A6104E0034A5269824314
:10211000014B5A61704700000010024029B1064A85
:10212000D2690243044BDA6104E0034AD269824374
:10213000014BDA61704700000010024029B1064AE5
:1021400092690243044B9A6104E0034A9269824314
:10215000014B9A6170470000001002400348406A3A
:1021600040F0807001494862704700000010024052
:1021700030B500210022002400232D4D6D6805F0AC
:102180000C0121B1042905D0082923D105E0294DEE
:10219000056022E0274D05601FE0254D6D6805F4C0
:1021A0007012234D6D6805F48034022505EB9242D0
:1021B0001CB9214D554305600BE01D4D6D6805F4BC
:1021C00000351DB11C4D5543056002E0194D5543C6
:1021D000056002E0174D056000BF00BF144D6D683B
:1021E00005F0F0010909154D6B5C0568DD4045609F
:1021F0000F4D6D6805F4E061090A104D6B5C456890
:10220000DD4085600A4D6D6805F46051C90A0B4DCB
:102210006B5C4568DD40C560054D6D6805F4404167
:10222000890B074D6B5CC568B5FBF3F5056130BDE7
:102230000010024000127A0000093D001400002046
:102240002400002010B501460022002300204A117E
:10225000012A02D1094C236806E0022A02D1074C68
:10226000236A01E0054C636A01F01F0201249440D7
:102270001C400CB1012000E0002010BD0010024005
:10228000704700B5024600F03BF803461068181A84
:10229000884201D2002000BD13600120FBE700004E
:1022A00030B5144800684FF47A72B0FBF2F1B1F126
:1022B000807F00D31DE021F07F40401E4FF0E022E0
:1022C000506150170F22002807DA13071D0E0A4B22
:1022D00000F00F04241F1D5503E013071C0E074BCD
:1022E0001C5400BF00204FF0E022906107201061D5
:1022F00000BF30BD0000002018ED00E000E400E069
:102300000148006870470000B40000204749484A6F
:1023100011600121474A1170474A117010280FD2ED
:10232000DFE800F0080F161D242E38414A81545B67
:102330006269737A41493E4A116001213D4A117038
:1023400071E03F493A4A116001213A4A11706AE04E
:102350003649374A11600121364A117063E0394924
:10236000334A11600121334A11705CE03649304A2A
:10237000116008212F4A117002212F4A117052E07A
:1023800032492B4A116008212A4A117002212A4A37
:10239000117048E02E49264A11600421254A117027
:1023A000254A11703FE02B49214A11600421214A3E
:1023B0001170214A117036E027491D4A116004212D
:1023C0001C4A117003211C4A11702CE02349184A41
:1023D00011600321174A117025E02149144A116048
:1023E0000321144A11701EE01049114A11600121A5
:1023F000104A117017E01B490D4A116005210D4A62
:10240000117004210C4A11700DE01749084A11603F
:102410000321084A117006E01449054A116004219D
:10242000044A117000BF00BF704700009A360008D0
:1024300074000020780000207D0000208A3600080B
:1024400092360008A2360008AA360008EA360008CC
:102450002A3700084A3700086A3700088A37000818
:10246000A2370008BA370008E2370008FA37000838
:1024700070B50546074C00E0641E8021064800F058
:1024800089FC08B9002CF7D11CB12946024800F09C
:102490004EFD70BDA0860100004800402DE9F041CE
:1024A00007460E461446781E204400F0FF08AA2076
:1024B000FFF7DEFF5520FFF7DBFF3846FFF7D8FFB9
:1024C0002046FFF7D5FF002508E0705DFFF7D0FF3D
:1024D000705D404400F0FF08681CC5B2A542F4DB03
:1024E0004046FFF7C5FFBDE8F081000010B5044687
:1024F0000021204600F022FF01D2002010BD044937
:10250000204601F01BF801D20148F7E72046F5E725
:102510000000344310B5052800DB10BD054C245CD9
:102520000C70054C245C1470044C245C1C7000BFBF
:10253000F3E7000064000020690000206E00002026
:1025400010B50446052C01DB002010BD034951F8ED
:10255000240000F0A7FEC0B2F7E700005000002002
:1025600010B5FFF777F9002407E0054850F824106C
:10257000204600F0D7F8601CC4B2052CF5DB10BD76
:102580003C00002010B5052808DA914206DAB42A8A
:1025900004DC13F11E0F01DB1E2B00DD10BD044C0B
:1025A0002154044C2254044C235400BFF6E700008D
:1025B00064000020690000206E0000202DE9F04733
:1025C00004460D461646142096FBF0F087B2052C03
:1025D00001DBBDE8F08707B90127284600F09AFE25
:1025E0008046FFF783FF0C4941F82400384600F08D
:1025F00091FE8046094A52F82410074A52F82400F6
:1026000000F0CEFF8146414600F08AFD044941F8C2
:10261000240000BFDDE70000500000203C00002047
:10262000640100202DE9F04705460E46142096FB74
:10263000F0F087B207B9012700241DE0285D00F003
:1026400069FE8046FFF752FF0D4941F824003846E5
:1026500000F060FE80460B4A52F82410084A52F8F7
:10266000240000F09DFF8146414600F059FD0649D7
:1026700041F82400601CC4B2052CDFDBBDE8F08704
:10268000500000203C0000206401002070B50024B0
:102690003EE0214A52F82410204A52F8240000F06B
:1026A0007FFF05461E4951F82400002100F046FF37
:1026B00006D81B4850F82410284600F03FFE0DD9DC
:1026C000174951F82400002100F038FE0DD21448BB
:1026D00050F82410284600F031FF06D80F4850F873
:1026E00024000D4941F824000AE00D4A52F8241054
:1026F000094A52F8240000F0A5FC074941F82400DB
:10270000054850F82410204600F00CF8601CC4B2B4
:10271000052CBEDB70BD00003C00002050000020F6
:10272000640100202DE9F04704460D464D49085745
:1027300000F0D8FD0646294600F084FC05464A49CB
:10274000085D00F0E7FD0646294600F0F7FE04D2DA
:102750004549085D00F0DEFD05464449085D00F08E
:10276000D9FD0646294600F0E9FD04D23F49085D3F
:1027700000F0D0FD0546052C70D2DFE804F0031709
:102780002F435B003A49284600F0CAFC814639498C
:1027900000F008FE8046384900F054FC074600F07F
:1027A00081FD86B23046FFF7F7F857E029463048FA
:1027B00000F0F6FE82462E4900F0B2FC81462D491B
:1027C00000F0F0FD80462C4900F03CFC074600F08C
:1027D00069FD86B23046FFF7E7F83FE02449284616
:1027E00000F09EFC8146234900F0DCFD8046224932
:1027F00000F028FC074600F055FD86B23046FFF792
:10280000DBF82BE029461A4800F0CAFE8246184938
:1028100000F086FC8146174900F0C4FD8046164949
:1028200000F010FC074600F03DFD86B23046FFF791
:10283000CBF813E00E49284600F072FC81460D49A2
:1028400000F0B0FD80460C4900F0FCFB074600F0AC
:1028500029FD86B23046FFF7BFF800BF00BFBDE8D4
:10286000F08700006E000020640000206900002056
:10287000000034430000FA440000FA4310B500F0B1
:1028800001F810BD0CB5002001900090334800689D
:1028900040F480303149086000BF3048006800F4DF
:1028A000003000900198401C0190009818B90198E0
:1028B000B0F5A06FF1D12948006800F4003010B1E4
:1028C0000120009001E0002000900098012843D1F1
:1028D0002348006840F0100021490860084600685D
:1028E00020F0030008600846006840F0020008601D
:1028F0001A484068194948600846406848600846D8
:10290000406840F4806048600846406820F47C10CD
:1029100048600846406840F4E8104860084600688F
:1029200040F08070086000BF0C48006800F0007044
:102930000028F9D00948406820F0030007494860A2
:102940000846406840F00200486000BF0348406805
:1029500000F00C000828F9D10CBD00000010024066
:102960000020024002480068401C0149086070478E
:10297000B400002010B51348006840F00100114970
:10298000086008464068104908400E4948600846FB
:1029900000680E4908400B4908600846006820F4AA
:1029A000802008600846406820F4FE0048604FF42C
:1029B0001F008860FFF762FF4FF000600449086065
:1029C00010BD0000001002400000FFF8FFFFF6FEFF
:1029D00008ED00E021B1028842F00102028004E02B
:1029E00002884FF6FE731A400280704701894FF645
:1029F000F87211400181704770B500240022002355
:102A0000058C4FF6FE7635400584028C8388048B56
:102A10004FF68F752C40B51E2C400D882C43751E2B
:102A20002A400D892A434D882A43144DA8420BD0D1
:102A3000134DA84208D0134DA84205D0124DA8420C
:102A400002D0124DA84213D14FF6F7752A404D8996
:102A50002A434FF6FB752A408D882A434FF6FF65BF
:102A60002B404FF6FF552B408D892B43CD892B43AF
:102A700083800483CD888586028470BD002C01404C
:102A80000034014000400140004401400048014042
:102A900070B5002400220023058C4FF6EF763540F8
:102AA0000584028C8388048B48F6FF752C404FF612
:102AB000FF452C400D884FF6FF7606EA05252C438E
:102AC0004FF6DF752A400D8906EA05152A434D8821
:102AD00006EA05152A43154DA84202D0144DA84216
:102AE0001DD14FF67F752A404D894FF6FF7606EAD5
:102AF00005152A434FF6BF752A408D8806EA05154D
:102B00002A434FF6FF352B404FF2FF752B408D893E
:102B100006EA85052B43CD8906EA85052B4383808C
:102B20000483CD880587028470BD0000002C01401D
:102B30000034014070B5002400220023058C4FF6BC
:102B4000FF6635400584028C8388848B4FF68F7531
:102B50002C404FF6FC752C400D882C434FF6FF554A
:102B60002A400D894FF6FF7606EA05252A434D884F
:102B700006EA05252A43154DA84202D0144DA84265
:102B80001DD14FF2FF752A404D894FF6FF7606EAB8
:102B900005252A434FF6FF352A408D8806EA05258C
:102BA0002A434EF6FF752B404DF6FF752B408D895D
:102BB00006EA05152B43CD8906EA05152B438380CC
:102BC0008483CD888587028470BD0000002C01407D
:102BD0000034014070B5002200230024058C4EF61D
:102BE000FF7635400584038C8488828B48F6FF7518
:102BF0002A404FF6FF452A400D884FF6FF7606EA39
:102C000005252A434DF6FF752B400D8906EA05354B
:102C10002B434D8806EA05352B430B4DA84202D0C5
:102C20000A4DA84208D14BF6FF752C408D894FF60E
:102C3000FF7606EA85152C4384808283CD88A0F830
:102C40004050038470BD0000002C0140003401405E
:102C50000021018041808180C18001814181818189
:102C6000C181704782884FF68F731A4082808288B4
:102C70000A43828070478186704701877047818749
:102C80007047A0F840107047002202881D4B984200
:102C90000ED01D4B98420BD0B0F1804F08D01B4B8B
:102CA000984205D01A4B984202D01A4B984204D150
:102CB0004FF68F731A404B881A43174B984207D030
:102CC000164B984204D04FF6FF431A40CB881A4364
:102CD00002808B8883850B8803850A4B98420BD032
:102CE000094B984208D00E4B984205D00D4B9842A4
:102CF00002D00D4B984201D10B7A038601238382C7
:102D000070470000002C01400034014000040040E6
:102D100000080040000C004000100040001400407B
:102D200000400140004401400048014010B540F21D
:102D30002551064800F03BF838B1044800F0F2F89D
:102D4000C4B221460248FDF767FD10BD00380140BE
:102D5000BC00002010B540F22551064800F027F8CD
:102D600038B1044800F0DEF8C4B221460248FDF74D
:102D700053FD10BD004800400001002021B18289B0
:102D800042F40052828104E082894DF6FF731A40BA
:102D90008281704702460020B1F5007F00D100BF5C
:102DA00013880B400BB1012000E00020704770B584
:102DB0000246002400230025002040F66A16B14296
:102DC00000D100BFC1F3421501F01F03012606FA2E
:102DD00003F3012D02D19689334006E0022D02D182
:102DE000168A334001E0968A33400C12012606FA17
:102DF00004F41688344013B10CB1012000E0002027
:102E000070BDF0B50346002400260025002040F6E2
:102E10006A17B94200D100BF1846C1F3421401F04D
:102E20001F06012707FA06F5012C01D10C3004E03A
:102E3000022C01D1103000E014301AB107682F4382
:102E4000076002E00768AF430760F0BD2DE9F04777
:102E500086B005460E460024A24600BFA1460027C4
:102E6000B08900B100BF2F462C8A4CF6FF70044099
:102E7000F08804432C82AC894EF6F3100440B088ED
:102E800031890843718908430443AC81AC8A4FF609
:102E9000FF400440B0890443AC8201A8FFF768F901
:102EA0001F48874202D1DDF810A001E0DDF80CA038
:102EB000A88900F4004040B10AEBCA0000EB0A10F8
:102EC00031684900B0FBF1F807E00AEBCA0000EBFB
:102ED0000A1031688900B0FBF1F86420B8FBF0F00B
:102EE00004012009642101FB1089A88900F4004035
:102EF00040B1322000EBC900B0FBF1F000F0070058
:102F0000044308E0322000EB09106421B0FBF1F02B
:102F100000F00F0004432C8106B0BDE8F0870000EC
:102F20000038014001468888C0F308007047C1F3AB
:102F300008028280704700BFFEE710B5FEF73EF939
:102F400010BD000010B57D20FFF77CF9012800D1ED
:102F500000E0002009490870FFF700F945F25550DC
:102F6000FEF740F90420FEF731F940F2E240FEF7A7
:102F700033F9FEF723F9FEF719F910BDBA00002066
:102F80000148007870470000BA00002086B0002099
:102F900005900490039002900190FDF793FCFEF7DA
:102FA000C7F8FFF7DDFAFEF7B1FAFDF74BFBFFF7C5
:102FB00077F9FEF795FFFEF7F5FDFFF7C3FFFDF785
:102FC00007FF3DE0FEF788FF0446FDF7FDFB1421F7
:102FD00005A8FFF756F908B1FEF734FE642104A8EE
:102FE000FFF74FF918B1FEF793FFFEF70DF9E07800
:102FF00010B14FF47A7000E0C820014603A8FFF733
:1030000040F908B1FDF7E4FE4FF4FA7102A8FFF7AA
:1030100038F908B1FEF790F8E07810B141F2883045
:1030200001E04FF47A70014601A8FFF72AF918B1C0
:10303000FEF7BCFFFDF78CFBFFF77FFF30BF00BF43
:10304000C0E7000090EA010F48BF81F0004100F1A5
:10305000AE82421A3CBF801A89184FEAD0524FF014
:103060007F4C1CEA410FA2EBD15318BF9CEA026FC0
:1030700000F03B804FF0004C4CEA00204CEA01216C
:1030800021FA03FC10EB0C0C1ED202F1FF325FEAB6
:103090001C2040EBC25038BF70471CF07F0F4FEA36
:1030A000400C18BFBCF17F4F38BF7047C3F12003FD
:1030B000994008BF20F00100BCF17F4F38BF704736
:1030C000A0F1C04000F035BA4FEA3C00000A40EBE6
:1030D000C25028BF1CF0FF0F4FEA400CE6D018BFCB
:1030E000BCF17F4F38BF7047EAE79CEA026F05D01A
:1030F00010EA5C0F08BF00F00040704710B500F008
:10310000D2F900BF64FBBE3E401058BFC0F1404042
:10311000491058BFC1F140418142EFF30080704730
:103120004FF47F0C1CEAD0121EBF1CEAD11392EAA6
:103130000C0F93EA0C0F00F0858090EA010F48BF56
:1031400042F4807240F4000C41F400002CF07F4106
:1031500020F07F4000B58142A2EB03020FF2081C71
:10316000ACEB504EC0F100009EF800E04FEA4E0E6E
:1031700000FB0EFC38BF49004FEA2C1C02F5FA0296
:103180000CFB0EF34FEACE1E4FEA112C4FEAC12181
:103190000EEB635E42EB22420EFB0CFC4FEA1C532B
:1031A00000FB03114FEA112C4FEA01310EFB0CFC1E
:1031B0004FEADC4C00FB0C11C14228BF09184CEB54
:1031C00003335DF804EB10EB410143EBC250B2F561
:1031D0007C0F38BF704729D512F0F00F1CBF00F1EB
:1031E000C04000F00040704700818283848586875C
:1031F00088898B8C8D8E8F919293959697999A9CB6
:103200009D9FA0A2A3A5A7A8AAACAEB0B2B3B5B724
:10321000B9BCBEC0C2C5C7C9CCCED1D4D7D9DCDFFA
:10322000E2E6E9ECF0F3F7FAFE0000004FEA400CAA
:103230000CF1807CBCF17E4F28BF7047B0F1C040DC
:1032400000F077B990EA010F0CEAD11348BF42F4BD
:103250008072624538BF634507D213F47F0F16D0E2
:1032600080EA010000F00040704710B500F01BF943
:10327000097EFC3E00F005B880EA010000F0004045
:10328000704780EA010000F0004000F052B912F4EB
:103290007F0F04BF0248704780EA010000F049B97F
:1032A0000000C07FC10DD1F19E0206DB4FEA002372
:1032B00043F0004323FA02F07047004207D54FEA7B
:1032C0004001B1F1FE4F02D24FF00000704710B53F
:1032D00000F0E9F849922480002070476FEA20004E
:1032E0007047000010F0004148BF4042B0FA80F340
:1032F00010FA03F2C3F19D030BD051EAC35101EB65
:103300001220530638BF704700F1010008BF20F0BB
:1033100001007047B0FA80F310FA03F2C3F19D0385
:103320000AD0D90501EB1220530638BF704700F1CF
:10333000010008BF20F001007047000050EA010CB6
:1033400000F113801CF5000F58BFBCF5000F01D42D
:103350008842704707D710F5000F58BF11F5000FCE
:1033600015D488427047894270471CF5000F04D578
:10337000BCF5000FF7D5814270474FF0807C1CEB05
:10338000400F38BF1CEB410F01D28142704710B58E
:1033900000F089F8922449004FF000504FF080511E
:1033A000FFF7B2BE4FF47F0C1CEAD0121EBF1CEA1E
:1033B000D11392EA0C0F93EA0C0F00F0478090EAC9
:1033C000010F48BF42F480724FF0004C4CEA0020DD
:1033D0004CEA012102EB0302A0FB0113A2F500025B
:1033E000002918BF43F001035B0028BF4FEA3303F5
:1033F00042EB22425FEA132C4CEBC2502EBFBCEBD7
:10340000436FB2F57C0F70474FEA036CBCF1004F7D
:1034100008BF20F00100B2F57C0F38BF70470BD514
:1034200082F0FF0212F5803FC8BF704700F1C04034
:10343000D8BF00F00040704700F5000C5FEA4C0C6C
:1034400048BF7047B0F1C04000F073B890EA010F78
:103450000CEAD11348BF42F48072624538BF63451D
:1034600004D280EA010000F00040704710B500F07F
:103470001AF800BF8900013E00F007B800F009B853
:103480005FEA410C5FEA1C6C08D080EA010000F0A2
:1034900050B85FEA400C5FEA1C6CF6D14FF0004078
:1034A000A0F5800070470EF1020E2EF0030E5EF8BC
:1034B000044B244204D44FEA4102B2F17F4F11D8A9
:1034C0004FEA4003B3F17F4F0CD80ED14FEAD07CC6
:1034D000B2F17F4F0CEB4C0C0CF1020C08BF4CEB23
:1034E000D17C04E04FF0080C01E04FEAD17C0CEBFA
:1034F0004C0324FA03F404F00704B4F1040C06D2DC
:103500000EEB840CBDE810404CF0010C6047DFE886
:103510000CF0070802024FF00040A0F5800010BD3B
:103520000846420018BFD2F1807288BF00F0004008
:1035300010BDFF2141EAD050C005704751EA000C90
:1035400000F113801CF5000F58BFBCF5000F01D42B
:103550008142704707D711F5000F58BF10F5000FD3
:1035600015D481427047894270471CF5000F04D57D
:10357000BCF5000FF7D5884270474FF0807C1CEBFC
:10358000410F38BF1CEB400F01D28842704780EAE0
:10359000010081EA000180EA0100FFF7F8BE0000A7
:1035A00090EA010F48BF81F000413FF552AD421A49
:1035B00004D882F00042A0EB020011444FEAD0523E
:1035C0004FF07F4C1CEA410FA2EBD15318BF9CEA8D
:1035D000026F4AD04FF0004C4CEA00204CEA012127
:1035E00021FA03FCB0EB0C0C0FD412F0FE0F36D016
:1035F0005FEA4C001DD5001240EBC25038BF704747
:103600001CF03F0F18BF70470BE0A2F101025FEA08
:103610001C2040EBC25038BF70471CF07F0F18BF12
:103620007047C3F12003994014BF401E20F00100F1
:10363000704780084FEA122308BF7047B0FA80FC39
:10364000A2EB0C02CCF1280C60FA0CF093EA122FDA
:1036500004BF00EBC25070474FEAC3707047130AB3
:103660005FEADC1008BF7047F6E79CEA026F04D0FF
:1036700010EA5C0F08BF0020704710B5FFF713FF7A
:1036800040DFF63E81F0004070471414A0A05A00BD
:10369000F4015A5A14145A0090015A5A5A5A5A00AC
:1036A0009001141414145A0090015A2D2D5A5A00E6
:1036B000C800872D2D875A00C800875A5A875A009C
:1036C000C8005A5A5A5A5A00C8002D5A5A2D5A0040
:1036D000C8002D87872D5A00C8005A87875A5A007C
:1036E000C8005A5A5A5A5A00C8005A87875A5A006C
:1036F000C8002D87872D5A00C8002D5A5A2D5A0010
:10370000C8005A5A5A5A5A00C800875A5A875A004B
:10371000C800872D2D875A00C8005A2D2D5A5A00EF
:10372000C8005A5A5A5A5A00C8005A2D875A5A0085
:10373000C8002D2D87875A00C8002D5A5A875A0075
:10374000C8005A5A5A5A5A00C8002D5A5A875A0065
:10375000C8002D2D87875A00C8005A2D875A5A0055
:10376000C8005A5A5A5A5A00C8001E1E1E1E32005D
:10377000F40196969696820084031E1E1E1E320049
:1037800084035A5A5A5A5A00F4018C5A5A235A003E
:10379000FA008C8C23235A0018015A5A5A5A5A009C
:1037A00090018C5A5A235A00FA008C8C23235A0019
:1037B00018015A5A5A5A5A0090015A14142D6E0080
:1037C0005E015A37142D8C002C015A0A142D460024
:1037D0002C015A37142D8C002C015A5A5A5A5A006F
:1037E000C2010A0A5A5A5A00BC025A5AAAAA5A00D4
:1037F000BC025A5A5A5A5A00F4015A14AA6E5A0074
:10380000BC025A5A5A5A5A009001145A6EAA5A00C7
:10381000BC025A5A5A5A5A00F40100000000000033
:1038200000000000000000000000000000F80000A0
:103830000000000000333000000000160E00160EDD
:103840000000000000000000000040C07840C07888
:103850004000043F04043F040400007088FC08306A
:103860000000001820FF211E0000F008F000E01802
:10387000000000211C031E211E0000F008887000BB
:1038800000001E21232419272110000000160E001D
:1038900000000000000000000000000000E018042C
:1038A0000200000000071820400000020418E00099
:1038B00000000040201807000000404080F08040D9
:1038C00040000202010F01020200000000F00000AF
:1038D00000000101011F01010100000000000000C3
:1038E000000000B0700000000000000000000000B8
:1038F00000000001010101010101000000000000C1
:103900000000003030000000000000000000806077
:103910001804006018060100000000E010080810FC
:10392000E000000F102020100F00001010F8000021
:1039300000000020203F20200000007008080888B8
:103940007000003028242221300000300888884888
:1039500030000018202020110E000000C02010F8B8
:10396000000000070424243F240000F80888880889
:1039700008000019212020110E0000E0108888188E
:103980000000000F112020110E0000380808C83870
:1039900008000000003F0000000000708808088850
:1039A0007000001C222121221C0000E010080810D9
:1039B000E0000000312222110F00000000C0C00012
:1039C00000000000003030000000000000C0C00017
:1039D0000000000080B07000000000008040201057
:1039E0000800000102040810200040404040404010
:1039F0004000040404040404040000081020408073
:103A000000000020100804020100007048080808A7
:103A1000F0000000003036010000C030C828E81077
:103A2000E0000718272423140B000000C038E00032
:103A30000000203C23020227382008F8888888707C
:103A40000000203F202020110E00C0300808080888
:103A50003800071820202010080008F8080808106F
:103A6000E000203F202020100F0008F88888E80898
:103A70001000203F20202320180008F88888E8083C
:103A80001000203F200003000000C0300808083864
:103A9000000007182020221E020008F80800000875
:103AA000F808203F210101213F20000808F80808FC
:103AB00000000020203F2020000000000808F80837
:103AC0000800C08080807F00000008F888C02818A7
:103AD0000800203F20012638200008F808000000D8
:103AE0000000203F20202020300008F8F800F8F8DF
:103AF0000800203F003F003F200008F830C00008C9
:103B0000F808203F200007183F00E01008080810C0
:103B1000E0000F10202020100F0008F80808080807
:103B2000F000203F210101010000E010080808100A
:103B3000E0000F18242438504F0008F8888888883F
:103B40007000203F2000030C302000708808080817
:103B500038000038202121221C00180808F8080825
:103B600018000000203F2000000008F808000008AE
:103B7000F808001F202020201F000878880000C8B7
:103B80003808000007380E010000F80800F80008A7
:103B9000F800033C0700073C0300081868808068B1
:103BA000180820302C03032C30200838C800C838EF
:103BB00008000000203F2000000010080808C83856
:103BC00008002038262120201800000000FE0202F4
:103BD00002000000007F40404000000C30C00000A8
:103BE0000000000000010638C00000020202FE00D2
:103BF0000000004040407F00000000201008040842
:103C00001020000000000000000000000000000084
:103C10000000808080808080808000020408000096
:103C20000000000000000000000000008080808094
:103C300000000019242222223F2008F80080800082
:103C40000000003F112020110E0000000080808045
:103C50000000000E1120202011000000008080884C
:103C6000F800000E112020103F200000808080808E
:103C70000000001F222222221300008080F088888A
:103C800088180020203F20200000000080808080D5
:103C90008000006B94949493600008F8008080800A
:103CA0000000203F210000203F2000809898000065
:103CB00000000020203F2020000000000080989895
:103CC000000000C08080807F000008F80000808035
:103CD0008000203F24022D302000000808F800005A
:103CE00000000020203F2020000080808080808015
:103CF0008000203F20003F20003F00808000808027
:103D0000000000203F2100203F20000080808080B4
:103D10000000001F202020201F00808000808000E5
:103D2000000080FFA12020110E0000000080808094
:103D30008000000E112020A0FF8080808000808005
:103D4000800020203F212000010000008080808032
:103D500080000033242424241900008080E0808027
:103D600000000000001F2020000080800000008074
:103D70008000001F202020103F20808080000080D5
:103D8000808000010E3008060100808000800080E5
:103D900080800F300C030C300F000080800080808A
:103DA00080000020312E0E312000808080000080B5
:103DB000808080818E701806010000808080808065
:103DC00080000021302C2221300000000000807C87
:103DD000020200000000003F404000000000FF0021
:103DE000000000000000FF0000000002027C8000D4
:103DF00000000040403F0000000000804040800084
:103E00000080000000000001010000000000000030
:103E10000000002F000000000700070000147F14BE
:103E20007F1400242A7F2A120023130864620036BC
:103E30004955225000000007000000001C224100EC
:103E4000000041221C000014083E08140008083E2F
:103E50000808000000A0600000080808080800002A
:103E600060600000002010080402003E5149453EF9
:103E70000000427F40000042615149460021414517
:103E80004B31001814127F10002745454539003C7E
:103E90004A4949300001710905030036494949364C
:103EA00000064949291E000036360000000056363B
:103EB000000000081422410000141414141400001F
:103EC00041221408000201510906003E4955592EAD
:103ED000007C1211127C007F49494936003E414165
:103EE0004122007F4141221C007F49494941007F16
:103EF00009090901003E4149497A007F0808087F05
:103F00000000417F4100002040413F01007F081434
:103F10002241007F40404040007F020C027F007F32
:103F20000408107F003E4141413E007F0909090617
:103F3000003E4151215E007F09192946004649494A
:103F400049310001017F0101003F4040403F001F17
:103F50002040201F003F4038403F00631408146396
:103F600000070870080700615149454300007F4180
:103F70004100000204081020000041417F000004BD
:103F800002010204004040404040000001020400E1
:103F9000002054545478007F484444380038444446
:103FA000442000384444487F0038545454180008D2
:103FB0007E0901020018A4A4A47C007F08040478F0
:103FC0000000447D4000004080847D00007F102878
:103FD00044000000417F4000007C04180478007C0D
:103FE0000804047800384444443800FC242424188D
:103FF0000018242418FC007C0804040800485454C9
:10400000542000043F444020003C4040207C001CE1
:104010002040201C003C4030403C004428102844F4
:10402000001CA0A0A07C004464544C440000087F05
:1040300041000000007F00000000417F08000008F0
:1040400004081008EFBC8C00000000000000000015
:1040500000000000000000000000583800000000D0
:104060000000000000000000E3808200000000006B
:104070000000000000000000000000000000182404
:10408000241800000000000000000000E4BDA000B3
:10409000008060F8074020180F08C808082818009A
:1040A000010000FF00100C0340807F000106180093
:1040B000E5A5BD001010F01F10F000808282E29292
:1040C0008A868000402215081661000040807F002B
:1040D00000000000E4B89600202020FE2020FF20F1
:1040E0002020FF20202020000000007F4040474487
:1040F0004444474040400000E7958C00000000FE2B
:10410000929292FE929292FE0000000008080484AF
:10411000621E010001FE0204040808000000000005
:10412000FF0101013109090909897101010101FF3B
:10413000FF8080808080809681808080808080FF6A
:10414000FF01818181FD8991A1C1FD81818101FFF3
:10415000FF808080809F888482819F80808080FF14
:10416000000000000000000000000000000000004F
:10417000000000000000000000000000000000003F
:10418000000000000000000000000000000000002F
:10419000000000000000000000000000000000001F
:1041A000000000000000000000000000000000000F
:1041B00000000000000000000000000000000000FF
:1041C00000000000000000000000000000000000EF
:1041D00000000000000000000000000000000000DF
:1041E00000000000000000000000000000000000CF
:1041F00000000000000000000000000000000000BF
:1042000000000000000000000000000000000000AE
:10421000000000000000000000000000000000009E
:10422000000000000000000000000000000000008E
:10423000000000000000000000000000000000007E
:10424000000000000000000000000000000000006E
:10425000000000000000000000000000000000005E
:10426000000000000000000000000000000000004E
:10427000000000000000000000000000000000003E
:10428000000000000000000000000000000080802E
:10429000808080808000000000000000000000009E
:1042A000000000000000000000000000000000000E
:1042B00000000000000000000000000000000000FE
:1042C00000000000000000000000000000000000EE
:1042D00000000000000000000000000000000000DE
:1042E00000000000000000000000000000000000CE
:1042F00000000000000000000000000000000000BE
:1043000000000000000086C6C6C7C7E3E3E3E3E39E
:10431000E1E1E3E7C7C787060000000000000000F6
:10432000000000000000000000000000000000107D
:10433000181C1C1E0E0607878383870707070606BF
:104340000E1E1C1C1C1800000000000000000000D5
:10435000000000000000000000000000000000005D
:10436000000000000000000000000000000000004D
:10437000000000000000000000000000000000003D
:1043800000000000000F0F1F1F3F3F383830303053
:1043900038383D3F1F1F1F0F0000000000000000C5
:1043A0000000000000000000000000000000000805
:1043B0003C7E7EFEFFEFC7C3C3C3C3C3E7FFFFFF5F
:1043C0007E7E3C180000000000000000000000009D
:1043D00000000000000000000000000000000000DD
:1043E0000000000000000000000000001038383815
:1043F0007C7C7C7C7C7C6C6C6C6C6C6C6C6C6C6C9D
:104400007C7C7C7838383000000000000000000020
:10441000000000C0C0C0C0C000000000000000805C
:1044200080808000000000000000C0C0C0C080008C
:104430000000000000000101010101010000808076
:10444000C0C0C0C0C0C0C0C0C0C0C0C0C0C0C080AC
:10445000808000000000000000000000000000005C
:10446000000000000000000000000000000000004C
:10447000000000000000000000000000000000003C
:10448000000000000000000000000000000000002C
:10449000000000070F1F1F1F1C181818181C1F0FE3
:1044A0000F1F1F3E383838383838393F1F1F0F0F5D
:1044B00004000000000000000000000003070707E0
:1044C00007070706060E0E0E0E0E0E0E0E0F0F0736
:1044D00007070303000000000000000000000000C8
:1044E00000000000000000000000000000000000CC
:1044F00000000000000000000000000000000000BC
:1045000000000000000000000000000000000000AB
:10451000000000000000000000000000000000009B
:10452000000000000000000000000000000000008B
:10453000000000000000000000000000000000007B
:10454000000000000000000000000000000000006B
:10455000000000000000000000000000000000005B
:10456000000000000000000000000000000000004B
:10457000000000000000000000000000000000003B
:10458000000000000000000000000000000000002B
:10459000000000000000000000000000000000001B
:1045A000000000000000000000000000000000000B
:1045B00000000000000000000000000000000000FB
:1045C00000000000000000000000000000000000EB
:1045D00000000000000000000000000000000000DB
:1045E00000000000000000000000000000000000CB
:1045F0000000000000000000000000000080C0E09B
:10460000F0F8F8FCFCFCFCFCFCF8F0F0E0800000AA
:10461000000000000000000000000000000000009A
:10462000000000000000000000000000000000008A
:104630000080C0E0F0F8F8FCFCFCFCFCF8F8F0F0BE
:10464000E08000000000000000000000000000000A
:10465000000000000000000000000000000000005A
:10466000000000000000000000000000000000004A
:1046700000000000000000000000C0F8FEFFFFFF87
:10468000FFFFFFFFFFFFFFFFFFFFFFFFFFFFFFFC3D
:10469000F0800000000000000000000000000000AA
:1046A0000000000000000000000000000000C0F852
:1046B000FEFFFFFFFFFFFFFFFFFFFFFFFFFFFFFF0B
:1046C000FFFFFFFCF0800000000000000000000081
:1046D00000000000000000000000000000000000DA
:1046E00000000000000000000000000000000000CA
:1046F000000000000000000000FCFFFFFFFFFFFFC4
:10470000FFFFFFFFFFFFFFFFFFFFFFFFFFFFFFFFB9
:10471000FFFF00000000000000000000000000009B
:1047200000000000000000000000000000FCFFFF8F
:10473000FFFFFFFFFFFFFFFFFFFFFFFFFFFFFFFF89
:10474000FFFFFFFFFFFF000000000000000000006F
:104750000000000000000000000000000000000059
:104760000000000000000000000000000000000049
:104770000000000000000000003FFFFFFFFFFFFF00
:10478000FFFFFFFFFFFFFFFFFFFFFFFFFFFFFFFF39
:10479000FFFF00000000000000000000000000001B
:1047A000000000000000000000000000003FFFFFCC
:1047B000FFFFFFFFFFFFFFFFFFFFFFFFFFFFFFFF09
:1047C000FFFFFFFFFFFF00000000000000000000EF
:1047D00000000000000000000000000000000000D9
:1047E00000000000000000000000000000000000C9
:1047F00000000000000000000000031F7FFFFFFF1B
:10480000FFFFFFFFFFFFFFFFFFFFFFFFFFFFFF3F78
:104810000F01000000000000000000000000000088
:104820000000000000000000000000000000031F66
:104830007FFFFFFFFFFFFFFFFFFFFFFFFFFFFFFF08
:10484000FFFFFF3F0F01000000000000000000001C
:104850000000000000000000000000000000000058
:104860000000000000000000000000000000000048
:10487000000000000000000000000000000103072D
:104880000F1F1F3F3F3F3F3F3F1F1F0F070300000A
:104890000000000000000000000000000000000018
:1048A0000000000000000000000000000000000008
:1048B000000103070F1F1F3F3F3F3F3F3F1F1F0FD9
:1048C00007030000000000000000000000000000DE
:1048D00000000000000000000000000000000000D8
:1048E00000000000000000000000000000000000C8
:1048F00000000000000000000000000000000000B8
:1049000000000000000000000000000000000000A7
:104910000000000000000000000000000000000097
:104920000000000000000000000000000000000087
:104930000000000000000000000000000000000077
:104940000000000000000000000000000000000067
:104950000000000000000000000000000000000057
:104960000000000000000000000000000000000047
:104970000000000000000000000000000000000037
:104980000000000000000000000000000000000027
:104990000000000000000000000000000000000017
:1049A0000000000000000000000000000000000007
:1049B00000000000000000000000000000000000F7
:1049C00000000000000000000000000000000000E7
:1049D00000000000000000000000000000000000D7
:1049E00000000000000000003070F0F0F0E0E0E0B7
:1049F000C0C08080800000000000000000000000B7
:104A000000000000000000000000000000000000A6
:104A10000000000000000000000000000000000096
:104A20000000000000000000000000000000000086
:104A30000000000000000000000000000000000076
:104A4000000000000000000000808080C0C0E0E0A6
:104A5000F0F070787878300000000000000000006E
:104A60000000000000000000000000000000010144
:104A70000303030707070F0E1E1E1C3C3C787878C3
:104A8000F0F0E0E0E0C0C0C0808000000000000066
:104A90000000000000000000000000000000000016
:104AA0000000000000000000000000000000000006
:104AB000000000000000000000C0E0E0F0F0F0F8AE
:104AC000F8F83C1C1E1E0F0F070707070301010122
:104AD00001000000000000000000000000000000D5
:104AE0000000000000000000000000008080C0C046
:104AF000C0C0E0E0E0E0F07070787838383C3C1CF2
:104B00001C1E1F1F0F0F0F0F0707030000000000E0
:104B10000000000000000000000000000000000095
:104B20000000000000000000000000000000000085
:104B3000000000000000000000000103030307075D
:104B4000070F0F0F0F1E1E1E3C3C3C787878F0F0CC
:104B5000F0E0E0E0E0C080000000000000000000A5
:104B6000000000000000000000008081030303F348
:104B70006101010180E03000000080C0C000000041
:104B80000000000000000000000000000000000025
:104B900000000000103878F8F8F8783838383838DD
:104BA00038383838383838383878F8F878383000C5
:104BB00000000000000000000000000000000000F5
:104BC000000000C0E0000080F03000000080F070C5
:104BD00000000101E1C10000000000000000000031
:104BE000000000000000000000070F0100103F0F50
:104BF0000000007C1F030000603C0F030000000069
:104C000000000000000000000000000000000000A4
:104C100000000000000000000F3FFCF0C0C0C0C05A
:104C2000C0C0C0C0C0C0C0C0E0FC7F0F000000001A
:104C30000000000000000000000000000000000074
:104C4000000000070300003F070000003C1F0000B9
:104C500000103C1F010000000000000000000000E8
:104C60000000000000000000000000000000000044
:104C70000000000000000000000000000000000034
:104C80000000000000000000000000000000000024
:104C90000000000000000000000000000000000014
:104CA0000000000000000000000000000000000004
:104CB00000000000000000000000000000000000F4
:104CC00000000000000000000000000000000000E4
:104CD00000000000000000000000000000000000D4
:104CE00000000000000000000000000000000000C4
:104CF00000000000000000000000000000000000B4
:104D000000000000000000000000000000000000A3
:104D10000000000000000000000000000000000093
:104D20000000000000000000000000000000000083
:104D30000000000000000000000000000000000073
:104D40000000000000000000000000000000000063
:104D50000000000000000000000000000000000053
:104D60000000000000000000000000000000000043
:104D70000000000000000000000000000000000033
:104D80000000000000000000000000000000000023
:104D90000000000000000000000000000000000013
:104DA0000000000000000000000000000000000003
:104DB00000000000000000000000000000000000F3
:104DC00000000000000000000000000000000000E3
:104DD00000000000000000000000000000000000D3
:104DE00000000000000000C0F838383060E0C080EB
:104DF00000000000000000000000000000000000B3
:104E000000000000000000000000000000000000A2
:104E10000000000000000000000000000000000092
:104E20000000000000000000000000000000000082
:104E30000000000000000000000000000000000072
:104E4000000000000000000000000000000080C022
:104E5000E07030387CF080000000000000000000AE
:104E6000000000000000FCFF8700000000000103BC
:104E7000070E0C183870E0C0800000000000000031
:104E80000000000000000000000000000000000022
:104E90000000000000000000000000000000000012
:104EA0000000000000000000000000000000000002
:104EB00000000000000000000000000000000000F2
:104EC000000000000080C0E070381C0E06070301DF
:104ED0000000000000FFFF300000000000000000A4
:104EE00000000000000000071F3C70E0C080800050
:104EF00000000000000000010103070E1C38706074
:104F0000C0C08000000000000000000000000000A1
:104F10000000000000000000000000000000000091
:104F200080C0C00000000000000000000000000081
:104F3000000000000000000000000080C0E06030C1
:104F4000381C0E07030100000000000000008080F4
:104F5000C0C060381C0F030000000000000000000B
:104F600000000000000000000000000000010183BC
:104F700003070606068C8C0C0C0C18181818181849
:104F800018191B1F1E1C1810000000000000000054
:104F90000000000000FEFE0E1C38706070180E0746
:104FA00003010103061C3830381C0EFFFF0000000F
:104FB00000000000000018181C1E1F1B19181818EC
:104FC0001898980C0C0C0C0C8C0606060703038131
:104FD00001000000000000000000000000000000D0
:104FE00000000000000000000000000000101E078C
:104FF0000000C0701C030000000000F03E00000034
:1050000000000000000000000000000000000000A0
:105010000000000000FFFF80000000000000000012
:105020000000000000000000000080FFFF00000002
:105030000000000000000000000000000000001858
:105040000E0300000000380F0100000000003F03C5
:105050000000000000000000000000000000000050
:105060000000000000000000000000000000000040
:105070000000000000000000000000000000000030
:105080000000000000000000000000000000000020
:1050900000000000000003030303030303030303F2
:1050A00003030303030303030303030301000000DB
:1050B00000000000000000000000000000000000F0
:1050C00000000000000000000000000000000000E0
:1050D00000000000000000000000000000000000D0
:1050E00000000000000000000000000000000000C0
:1050F00000000000000000000000000000000000B0
:10510000000000000000000000000000000000009F
:10511000000000000000000000000000000000008F
:10512000000000000000000000000000000000007F
:10513000000000000000000000000000000000006F
:10514000000000000000000000000000000000005F
:10515000000000000000000000000000000000004F
:10516000000000000000000000000000000000003F
:10517000000000000000000000000000000000002F
:10518000000000000000000000000000000000001F
:10519000000000000000000000000000000000000F
:1051A00000000000000000000000000000000000FF
:1051B00000000000000000000000000000000000EF
:1051C00000000000000000000000000000000000DF
:1051D00000000000000000000000000000000000CF
:1051E00000000000000000000000000000000000BF
:1051F00000000000000000000000000000000000AF
:10520000000000000000000000000000000000009E
:10521000000000000000000000000000000000008E
:10522000000000000000000000000000000000007E
:10523000000000000000000000000000000000006E
:10524000000000000000000000000000000000005E
:10525000000000000000000000000000000000004E
:1052600000000000000000808080C0C0C0C0C0C03E
:10527000C0C0C0C0C0C0C0C0E0E0E0E0E0E0E0E02E
:10528000E0E0E0E0E0E0F0F0F0F0200000000000FE
:10529000000000000000000000000000000000000E
:1052A00000000000000000000000000000000000FE
:1052B000000008181858F8F8F8F8F8F8F8F8F8F8AE
:1052C000F8F8F8F8F8F8F8F8F8F8F8F8F8F8F0F06E
:1052D000F0F0F0F0F0F0F0F0F0F0F000000000007E
:1052E000000000000080F3F3FBFBFBFBFBFFFFFF74
:1052F000FFFFFFFFFFFFFFFFFFFFFFFF7D7D7D3D06
:105300003D3D3D3D3D1D1F1F1F1F1E0E0E0C0C0081
:10531000000000000000000000000000000000008D
:10532000000000000000000000000000000000007D
:10533000000000003C7EFFFFFFFFFFFFFFFFFFFFBD
:10534000FFFFFFFFFFFFFFFFFFFFFFFFFFFDFDF977
:10535000F9F9F9F9F9F9F1F1F17030000000000004
:105360000000000000010100113F3F3F1F1F1F1FF1
:105370001F1F1F1F0F0F0F0F0F0F0F0F0F0F07070D
:1053800007070707070707070303030303000000D6
:10539000000080808080808080808080808080800D
:1053A00080808080808080808080808080800000FD
:1053B00000000000000000000000000000000000ED
:1053C00000000000000000000000000000000000DD
:1053D00000000000000000000000000000000000CD
:1053E00000000000000000000000000000000000BD
:1053F00000000000000000000000000000000000AD
:10540000000000000000000000000000000000009C
:105410000000FFFF0100000000000000000000008D
:1054200000000000000000000000000081FFFF00FD
:10543000000000000000000000000000000000006C
:10544000000000000000000000000000000000005C
:10545000000000000000000000000000000000004C
:10546000000000000000000000000000000000003C
:10547000000000000000000000000000000000002C
:10548000000000000000000000000000000000001C
:1054900000000101010101010101010101010101FE
:1054A000010101010101FFFF00000003FF010000F5
:1054B00000000000000000000000000000000000EC
:1054C00000000000000000000000000000000000DC
:1054D00000000000000000000000000000000000CC
:1054E00000000000000000000000000000000000BC
:1054F00000000000000000000000000000000000AC
:10550000000000000000000000000000000000009B
:10551000000000000000000000000000000000008B
:105520000000000000000003030602030100000069
:10553000000000000000000000000000000000006B
:10554000000000000000000000000000000000005B
:10555000000000000000000000000000000000004B
:10556000000000000000000000000000000000003B
:10557000000000000000000000000000000000002B
:10558000000000000000000000000000000000001B
:10559000000000000000000000000000000000000B
:1055A00000000000000000000000000000000000FB
:1055B00000000000000000000000000000000000EB
:1055C00000000000000000000000000000000000DB
:1055D00000000000000000000000000000000000CB
:1055E00000000000000000000000000000000000BB
:1055F00000000000000000000000000000000000AB
:10560000000000000000000000000000000000009A
:10561000000000000000000000000000000000008A
:10562000000000000000000000000000000000007A
:10563000000000000000000000000000000000006A
:10564000000000000000000000000000000000005A
:10565000000000000000000000000000000000004A
:1056600000000000000000C0E0F0F8F8FC7C3E3EC6
:105670001E1F1F1F1F1E3E3E7CFCF8F8F0E080003E
:10568000000000000000000000000000000000001A
:1056900000000000000000000000000000C000004A
:1056A00000000000808000000000000000000000FA
:1056B000008000000000000000000000000000006A
:1056C000000080E0F0F8F8FC7C3E3E1E1F1F1E1E0E
:1056D0001E3E3E7CFCF8F8F0E08000000000000078
:1056E0000000000000F8FFFFFFFF070100000000BE
:1056F000000000000000000000000107FFFFFFFFA6
:10570000F000000000000000000000000060301CFD
:105710000603C0E0380E0700C0E0380E07010000A5
:10572000E0701C07030060701C0703000060380E67
:10573000070130380E0300000000000000000000E8
:10574000F8FFFFFFFF030100000000000000000061
:1057500000000000000107FFFFFFFFF00000000055
:105760000000000000010F3F7FFFFCF8F0E0C0C028
:10577000808080808080C0C0E0F0F8FEFF7F1F0F37
:105780000000000000000000000000000000000019
:105790000000000000000000000000000000000009
:1057A00000000000000000000000000000000000F9
:1057B00000000000000000000000000000000000E9
:1057C000010F3F7FFFFCF8F0E0C0C0808080808048
:1057D00080C0C0E0F0F8FEFF7F3F0F010000000036
:1057E000000000000000000000000103030707079D
:1057F000070F0F0F0F0F070707030101000000003D
:105800000000000000000000000000000000000098
:1058100000007FFC8000000000000000000000E0AD
:10582000FFFE800000000000000000000080FE7EFF
:105830000000000000000000000000000000000068
:105840000000000000010303070707070F0F0F0FF9
:105850000707070703010100000000000000000027
:105860000000000000000000000000000000000038
:105870000000000000000000000000000000000028
:105880000000000000000000000000000000000018
:1058900000000001030306060606060606060301CD
:1058A00001010307060606060606060603030100B5
:1058B00000000000000000000000000000000000E8
:1058C00000000000000000000000000000000000D8
:1058D00000000000000000000000000000000000C8
:1058E00000000000000000000000000000000000B8
:1058F00000000000000000000000000000000000A8
:105900000000000000000000000000000000000097
:105910000000000000000000000000000000000087
:105920000000000000000000000000000000000077
:105930000000000000000000000000000000000067
:105940000000000000000000000000000000000057
:105950000000000000000000000000000000000047
:105960000000000000000000000000000000000037
:105970000000000000000000000000000000000027
:105980000000000000000000000000000000000017
:105990000000000000000000000000000000000007
:1059A00000000000000000000000000000000000F7
:1059B00000000000000000000000000000000000E7
:1059C00000000000000000000000000000000000D7
:1059D00000000000000000000000000000000000C7
:1059E0000000E0E0E0E0C0C0C080800000000000F7
:1059F00000000000000000000000000000000000A7
:105A00000000000000000000000000000000000096
:105A10000000000000000000000000000000000086
:105A20000000000000000000000000000000000076
:105A30000000000000000000000000000000000066
:105A40000000000000000000000000000000000056
:105A5000008080C0C0C0E0E0F0F0F0000000000076
:105A600000000001010303030707070F0F0F1E1EAD
:105A70003E3C7C7C78F8F0F0E0E0E0E0C0C0808064
:105A80008000000000000000000000000000000096
:105A90000000000000000000000000000000000006
:105AA00000000000000000000000000000000000F6
:105AB000000000000000000000000000008080C026
:105AC000C0C0E0E0E0F0F0F8F8F8BCBC9E9E9F8F0C
:105AD0008F8FC7C7C3C3C3C1C1C0C0C0000000000F
